:020000040000FA
:0600000077EF01F0120091
:020006001200E6
:060008000EEF00F01200F3
:02000E000100EF
:0C0010000A0300008A000000010000004C
:04001C00DACFE4FF54
:10002000E2CFDAFFE9CFE4FFEACFE4FFF6CFE4FF67
:10003000F7CFE4FFF5CFE4FFF3CFE4FFF4CFE4FF25
:10004000FACFE4FF00EE00F0020EE80403E3EECF87
:10005000E4FFFBD700EE02F0000EE80403E3EECF6E
:10006000E4FFFBD7E6529EA01DD09E903C0ECF6EC3
:10007000B00ECE6E00018A51020A0FE0030A08E0BA
:10008000010A01E00ED0010E8A6F7E0E896E09D042
:10009000020E8A6F7D0E896E04D08A6B7B0E896E8C
:1000A00000D04FD0F2A04DD08150816E80B015D0DD
:1000B00081B805D0330E8C6EA3D8A8D80DD081BAE4
:1000C00005D0360E8C6E9CD8A1D806D081BC04D049
:1000D000390E8C6E95D89AD834D080B21CD081B8A5
:1000E00005D0320E8C6E8CD891D814D081BA05D040
:1000F000350E8C6E85D88AD80DD081BC05D0380ECF
:100100008C6E7ED883D806D081BE04D0300E8C6E23
:1001100077D87CD816D080B414D081B805D0310EF1
:100120008C6E6ED873D80DD081BA05D0340E8C6E1B
:1001300067D86CD806D081BC04D0370E8C6E60D8DE
:1001400065D8F290E55200EE01F0000EE80403E3FA
:10015000E5CFEDFFFBD700EE01F0020EE80403E36C
:10016000E5CFEDFFFBD7E5CFFAFFE5CFF4FFE5CF15
:10017000F3FFE5CFF5FFE5CFF7FFE5CFF6FFE5CFDE
:10018000EAFFE5CFE9FFE5CFDAFF1100F10E936E4C
:10019000956AF80E946E780E926E070EC16E0FD8A7
:1001A000F28EF28CF2869D809E90F290140ECD6EAF
:1001B0003C0ECF6EB00ECE6ECD80FFD71200380E43
:1001C0008C6E18D809D8010E8C6E14D805D80F0E75
:1001D0008C6E10D8ECEF00F0010ED56E0B0ED76EC2
:1001E000BC0ED66E11EF01F0480ED56EFD0ED66E28
:1001F00011EF01F0829082928284F6DF82941200E5
:10020000828082928284F0DF8294120082908282C5
:10021000958E8294E9DF828483BEFBD78294959E7B
:100220001200F294D58EF2A4FED7F294D59E12005D
:100230000E0EF66E000EF76E000EF86E000109004D
:10024000F550856F0900F550866F03E1856701D091
:100250003DD00900F550806F0900F550816F09000D
:10026000F550826F09000900F550E96E0900F5505C
:10027000EA6E090009000900F550836F0900F55086
:10028000846F09000900F6CF87F0F7CF88F0F8CF28
:1002900089F080C0F6FF81C0F7FF82C0F8FF00013F
:1002A000835302E1845307E00900F550EE6E8307A3
:1002B000F8E28407F9D787C0F6FF88C0F7FF89C046
:0E02C000F8FF00018507000E865BBFD7120015
:0202CE00000E20
:1002D000F36E00EE00F0060E01D81200EA6002D0C4
:0E02E000EE6AFCD7F350E9601200EE6AFCD71C
:0202EE0015EE0B
:1002F00000F025EE00F0F86A019C18EC01F003EC28
:0A03000000F0C6EC00F0FBD712007D
:01030A0000F2
:020000040030CA
:010003000EEE
:00000001FF
